{
  "contractName": "DEX",
  "abi": [
    {
      "inputs": [],
      "stateMutability": "nonpayable",
      "type": "constructor"
    },
    {
      "anonymous": false,
      "inputs": [
        {
          "indexed": false,
          "internalType": "uint256",
          "name": "amount",
          "type": "uint256"
        }
      ],
      "name": "Bought",
      "type": "event"
    },
    {
      "anonymous": false,
      "inputs": [
        {
          "indexed": false,
          "internalType": "uint256",
          "name": "amount",
          "type": "uint256"
        }
      ],
      "name": "Sold",
      "type": "event"
    },
    {
      "inputs": [],
      "name": "token",
      "outputs": [
        {
          "internalType": "contract IERC20",
          "name": "",
          "type": "address"
        }
      ],
      "stateMutability": "view",
      "type": "function"
    },
    {
      "inputs": [],
      "name": "buy",
      "outputs": [],
      "stateMutability": "payable",
      "type": "function"
    },
    {
      "inputs": [
        {
          "internalType": "uint256",
          "name": "amount",
          "type": "uint256"
        }
      ],
      "name": "sell",
      "outputs": [],
      "stateMutability": "nonpayable",
      "type": "function"
    }
  ],
  "bytecode": "0x608060405234801561001057600080fd5b5060405161001d9061007e565b604051809103906000f080158015610039573d6000803e3d6000fd5b506000806101000a81548173ffffffffffffffffffffffffffffffffffffffff021916908373ffffffffffffffffffffffffffffffffffffffff16021790555061008b565b610dc780610a5883390190565b6109be8061009a6000396000f3fe6080604052600436106100345760003560e01c8063a6f2ae3a14610039578063e4849b3214610043578063fc0c546a1461006c575b600080fd5b610041610097565b005b34801561004f57600080fd5b5061006a60048036038101906100659190610544565b61029b565b005b34801561007857600080fd5b506100816104e5565b60405161008e91906105f0565b60405180910390f35b600034905060008060009054906101000a900473ffffffffffffffffffffffffffffffffffffffff1673ffffffffffffffffffffffffffffffffffffffff166370a08231306040518263ffffffff1660e01b81526004016100f8919061062c565b602060405180830381865afa158015610115573d6000803e3d6000fd5b505050506040513d601f19601f82011682018060405250810190610139919061065c565b90506000821161017e576040517f08c379a0000000000000000000000000000000000000000000000000000000008152600401610175906106e6565b60405180910390fd5b808211156101c1576040517f08c379a00000000000000000000000000000000000000000000000000000000081526004016101b890610752565b60405180910390fd5b60008054906101000a900473ffffffffffffffffffffffffffffffffffffffff1673ffffffffffffffffffffffffffffffffffffffff1663a9059cbb33846040518363ffffffff1660e01b815260040161021c929190610781565b6020604051808303816000875af115801561023b573d6000803e3d6000fd5b505050506040513d601f19601f8201168201806040525081019061025f91906107e2565b507f4e08ba899977cf7d4c2964bce71c6b9a7ef76ee5166a4c1249a1e08016e33ef18260405161028f919061080f565b60405180910390a15050565b600081116102de576040517f08c379a00000000000000000000000000000000000000000000000000000000081526004016102d59061089c565b60405180910390fd5b60008060009054906101000a900473ffffffffffffffffffffffffffffffffffffffff1673ffffffffffffffffffffffffffffffffffffffff1663dd62ed3e33306040518363ffffffff1660e01b815260040161033c9291906108bc565b602060405180830381865afa158015610359573d6000803e3d6000fd5b505050506040513d601f19601f8201168201806040525081019061037d919061065c565b9050818110156103c2576040517f08c379a00000000000000000000000000000000000000000000000000000000081526004016103b990610931565b60405180910390fd5b60008054906101000a900473ffffffffffffffffffffffffffffffffffffffff1673ffffffffffffffffffffffffffffffffffffffff166323b872dd3330856040518463ffffffff1660e01b815260040161041f93929190610951565b6020604051808303816000875af115801561043e573d6000803e3d6000fd5b505050506040513d601f19601f8201168201806040525081019061046291906107e2565b503373ffffffffffffffffffffffffffffffffffffffff166108fc839081150290604051600060405180830381858888f193505050501580156104a9573d6000803e3d6000fd5b507f92f64ca637d023f354075a4be751b169c1a8a9ccb6d33cdd0cb3520543995727826040516104d9919061080f565b60405180910390a15050565b60008054906101000a900473ffffffffffffffffffffffffffffffffffffffff1681565b600080fd5b6000819050919050565b6105218161050e565b811461052c57600080fd5b50565b60008135905061053e81610518565b92915050565b60006020828403121561055a57610559610509565b5b60006105688482850161052f565b91505092915050565b600073ffffffffffffffffffffffffffffffffffffffff82169050919050565b6000819050919050565b60006105b66105b16105ac84610571565b610591565b610571565b9050919050565b60006105c88261059b565b9050919050565b60006105da826105bd565b9050919050565b6105ea816105cf565b82525050565b600060208201905061060560008301846105e1565b92915050565b600061061682610571565b9050919050565b6106268161060b565b82525050565b6000602082019050610641600083018461061d565b92915050565b60008151905061065681610518565b92915050565b60006020828403121561067257610671610509565b5b600061068084828501610647565b91505092915050565b600082825260208201905092915050565b7f596f75206e65656420746f2073656e6420736f6d652065746865720000000000600082015250565b60006106d0601b83610689565b91506106db8261069a565b602082019050919050565b600060208201905081810360008301526106ff816106c3565b9050919050565b7f4e6f7420656e6f75676820746f6b656e7320696e207468652072657365727665600082015250565b600061073c602083610689565b915061074782610706565b602082019050919050565b6000602082019050818103600083015261076b8161072f565b9050919050565b61077b8161050e565b82525050565b6000604082019050610796600083018561061d565b6107a36020830184610772565b9392505050565b60008115159050919050565b6107bf816107aa565b81146107ca57600080fd5b50565b6000815190506107dc816107b6565b92915050565b6000602082840312156107f8576107f7610509565b5b6000610806848285016107cd565b91505092915050565b60006020820190506108246000830184610772565b92915050565b7f596f75206e65656420746f2073656c6c206174206c6561737420736f6d65207460008201527f6f6b656e73000000000000000000000000000000000000000000000000000000602082015250565b6000610886602583610689565b91506108918261082a565b604082019050919050565b600060208201905081810360008301526108b581610879565b9050919050565b60006040820190506108d1600083018561061d565b6108de602083018461061d565b9392505050565b7f436865636b2074686520746f6b656e20616c6c6f77616e636500000000000000600082015250565b600061091b601983610689565b9150610926826108e5565b602082019050919050565b6000602082019050818103600083015261094a8161090e565b9050919050565b6000606082019050610966600083018661061d565b610973602083018561061d565b6109806040830184610772565b94935050505056fea26469706673582212206587a0e2915ad4195319b3fcde202c90b6ba7aa173bd5413aa4c7fb652b6d1ec64736f6c634300080d00336080604052678ac7230489e8000060025534801561001c57600080fd5b506002546000803373ffffffffffffffffffffffffffffffffffffffff1673ffffffffffffffffffffffffffffffffffffffff16815260200190815260200160002081905550610d56806100716000396000f3fe608060405234801561001057600080fd5b50600436106100935760003560e01c8063313ce56711610066578063313ce5671461013457806370a082311461015257806395d89b4114610182578063a9059cbb146101a0578063dd62ed3e146101d057610093565b806306fdde0314610098578063095ea7b3146100b657806318160ddd146100e657806323b872dd14610104575b600080fd5b6100a0610200565b6040516100ad9190610a15565b60405180910390f35b6100d060048036038101906100cb9190610ad0565b610239565b6040516100dd9190610b2b565b60405180910390f35b6100ee61032b565b6040516100fb9190610b55565b60405180910390f35b61011e60048036038101906101199190610b70565b610335565b60405161012b9190610b2b565b60405180910390f35b61013c61069b565b6040516101499190610bdf565b60405180910390f35b61016c60048036038101906101679190610bfa565b6106a0565b6040516101799190610b55565b60405180910390f35b61018a6106e8565b6040516101979190610a15565b60405180910390f35b6101ba60048036038101906101b59190610ad0565b610721565b6040516101c79190610b2b565b60405180910390f35b6101ea60048036038101906101e59190610c27565b6108f5565b6040516101f79190610b55565b60405180910390f35b6040518060400160405280600a81526020017f455243323042617369630000000000000000000000000000000000000000000081525081565b600081600160003373ffffffffffffffffffffffffffffffffffffffff1673ffffffffffffffffffffffffffffffffffffffff16815260200190815260200160002060008573ffffffffffffffffffffffffffffffffffffffff1673ffffffffffffffffffffffffffffffffffffffff168152602001908152602001600020819055508273ffffffffffffffffffffffffffffffffffffffff163373ffffffffffffffffffffffffffffffffffffffff167f8c5be1e5ebec7d5bd14f71427d1e84f3dd0314c0f7b2291e5b200ac8c7c3b925846040516103199190610b55565b60405180910390a36001905092915050565b6000600254905090565b60008060008573ffffffffffffffffffffffffffffffffffffffff1673ffffffffffffffffffffffffffffffffffffffff1681526020019081526020016000205482111561038257600080fd5b600160008573ffffffffffffffffffffffffffffffffffffffff1673ffffffffffffffffffffffffffffffffffffffff16815260200190815260200160002060003373ffffffffffffffffffffffffffffffffffffffff1673ffffffffffffffffffffffffffffffffffffffff1681526020019081526020016000205482111561040b57600080fd5b816000808673ffffffffffffffffffffffffffffffffffffffff1673ffffffffffffffffffffffffffffffffffffffff168152602001908152602001600020546104559190610c96565b6000808673ffffffffffffffffffffffffffffffffffffffff1673ffffffffffffffffffffffffffffffffffffffff1681526020019081526020016000208190555081600160008673ffffffffffffffffffffffffffffffffffffffff1673ffffffffffffffffffffffffffffffffffffffff16815260200190815260200160002060003373ffffffffffffffffffffffffffffffffffffffff1673ffffffffffffffffffffffffffffffffffffffff1681526020019081526020016000205461051f9190610c96565b600160008673ffffffffffffffffffffffffffffffffffffffff1673ffffffffffffffffffffffffffffffffffffffff16815260200190815260200160002060003373ffffffffffffffffffffffffffffffffffffffff1673ffffffffffffffffffffffffffffffffffffffff16815260200190815260200160002081905550816000808573ffffffffffffffffffffffffffffffffffffffff1673ffffffffffffffffffffffffffffffffffffffff168152602001908152602001600020546105e99190610cca565b6000808573ffffffffffffffffffffffffffffffffffffffff1673ffffffffffffffffffffffffffffffffffffffff168152602001908152602001600020819055508273ffffffffffffffffffffffffffffffffffffffff168473ffffffffffffffffffffffffffffffffffffffff167fddf252ad1be2c89b69c2b068fc378daa952ba7f163c4a11628f55a4df523b3ef846040516106889190610b55565b60405180910390a3600190509392505050565b601281565b60008060008373ffffffffffffffffffffffffffffffffffffffff1673ffffffffffffffffffffffffffffffffffffffff168152602001908152602001600020549050919050565b6040518060400160405280600381526020017f455243000000000000000000000000000000000000000000000000000000000081525081565b60008060003373ffffffffffffffffffffffffffffffffffffffff1673ffffffffffffffffffffffffffffffffffffffff1681526020019081526020016000205482111561076e57600080fd5b816000803373ffffffffffffffffffffffffffffffffffffffff1673ffffffffffffffffffffffffffffffffffffffff168152602001908152602001600020546107b89190610c96565b6000803373ffffffffffffffffffffffffffffffffffffffff1673ffffffffffffffffffffffffffffffffffffffff16815260200190815260200160002081905550816000808573ffffffffffffffffffffffffffffffffffffffff1673ffffffffffffffffffffffffffffffffffffffff168152602001908152602001600020546108449190610cca565b6000808573ffffffffffffffffffffffffffffffffffffffff1673ffffffffffffffffffffffffffffffffffffffff168152602001908152602001600020819055508273ffffffffffffffffffffffffffffffffffffffff163373ffffffffffffffffffffffffffffffffffffffff167fddf252ad1be2c89b69c2b068fc378daa952ba7f163c4a11628f55a4df523b3ef846040516108e39190610b55565b60405180910390a36001905092915050565b6000600160008473ffffffffffffffffffffffffffffffffffffffff1673ffffffffffffffffffffffffffffffffffffffff16815260200190815260200160002060008373ffffffffffffffffffffffffffffffffffffffff1673ffffffffffffffffffffffffffffffffffffffff16815260200190815260200160002054905092915050565b600081519050919050565b600082825260208201905092915050565b60005b838110156109b657808201518184015260208101905061099b565b838111156109c5576000848401525b50505050565b6000601f19601f8301169050919050565b60006109e78261097c565b6109f18185610987565b9350610a01818560208601610998565b610a0a816109cb565b840191505092915050565b60006020820190508181036000830152610a2f81846109dc565b905092915050565b600080fd5b600073ffffffffffffffffffffffffffffffffffffffff82169050919050565b6000610a6782610a3c565b9050919050565b610a7781610a5c565b8114610a8257600080fd5b50565b600081359050610a9481610a6e565b92915050565b6000819050919050565b610aad81610a9a565b8114610ab857600080fd5b50565b600081359050610aca81610aa4565b92915050565b60008060408385031215610ae757610ae6610a37565b5b6000610af585828601610a85565b9250506020610b0685828601610abb565b9150509250929050565b60008115159050919050565b610b2581610b10565b82525050565b6000602082019050610b406000830184610b1c565b92915050565b610b4f81610a9a565b82525050565b6000602082019050610b6a6000830184610b46565b92915050565b600080600060608486031215610b8957610b88610a37565b5b6000610b9786828701610a85565b9350506020610ba886828701610a85565b9250506040610bb986828701610abb565b9150509250925092565b600060ff82169050919050565b610bd981610bc3565b82525050565b6000602082019050610bf46000830184610bd0565b92915050565b600060208284031215610c1057610c0f610a37565b5b6000610c1e84828501610a85565b91505092915050565b60008060408385031215610c3e57610c3d610a37565b5b6000610c4c85828601610a85565b9250506020610c5d85828601610a85565b9150509250929050565b7f4e487b7100000000000000000000000000000000000000000000000000000000600052601160045260246000fd5b6000610ca182610a9a565b9150610cac83610a9a565b925082821015610cbf57610cbe610c67565b5b828203905092915050565b6000610cd582610a9a565b9150610ce083610a9a565b9250827fffffffffffffffffffffffffffffffffffffffffffffffffffffffffffffffff03821115610d1557610d14610c67565b5b82820190509291505056fea2646970667358221220a6b9bca8ca839f7c45adabe57e807a313caa1b91e1674710fb17d141278c8bd664736f6c634300080d0033",
  "immutableReferences": {},
  "source": "// SPDX-License-Identifier: GPL-3.0\npragma solidity >=0.7.0 <0.9.0;\n\ninterface IERC20 {\n    function totalSupply() external view returns (uint256);\n    function balanceOf(address account) external view returns (uint256);\n    function allowance(address owner, address spender) external view returns (uint256);\n\n    function transfer(address recipient, uint256 amount) external returns (bool);\n    function approve(address spender, uint256 amount) external returns (bool);\n    function transferFrom(address sender, address recipient, uint256 amount) external returns (bool);\n\n    event Transfer(address indexed from, address indexed to, uint256 value);\n    event Approval(address indexed owner, address indexed spender, uint256 value);\n}\n\n\ncontract ERC20Basic is IERC20 {\n\n    string public constant name = \"ERC20Basic\";\n    string public constant symbol = \"ERC\";\n    uint8 public constant decimals = 18;\n\n\n    mapping(address => uint256) balances;\n\n    mapping(address => mapping (address => uint256)) allowed;\n\n    uint256 totalSupply_ = 10 ether;\n\n\n   constructor() {\n    balances[msg.sender] = totalSupply_;\n    }\n\n    function totalSupply() public override view returns (uint256) {\n    return totalSupply_;\n    }\n\n    function balanceOf(address tokenOwner) public override view returns (uint256) {\n        return balances[tokenOwner];\n    }\n\n    function transfer(address receiver, uint256 numTokens) public override returns (bool) {\n        require(numTokens <= balances[msg.sender]);\n        balances[msg.sender] = balances[msg.sender]-numTokens;\n        balances[receiver] = balances[receiver]+numTokens;\n        emit Transfer(msg.sender, receiver, numTokens);\n        return true;\n    }\n\n    function approve(address delegate, uint256 numTokens) public override returns (bool) {\n        allowed[msg.sender][delegate] = numTokens;\n        emit Approval(msg.sender, delegate, numTokens);\n        return true;\n    }\n\n    function allowance(address owner, address delegate) public override view returns (uint) {\n        return allowed[owner][delegate];\n    }\n\n    function transferFrom(address owner, address buyer, uint256 numTokens) public override returns (bool) {\n        require(numTokens <= balances[owner]);\n        require(numTokens <= allowed[owner][msg.sender]);\n\n        balances[owner] = balances[owner]-numTokens;\n        allowed[owner][msg.sender] = allowed[owner][msg.sender]-numTokens;\n        balances[buyer] = balances[buyer]+numTokens;\n        emit Transfer(owner, buyer, numTokens);\n        return true;\n    }\n}\n\ncontract DEX {\n\n    IERC20 public token;\n\n    event Bought(uint256 amount);\n    event Sold(uint256 amount);\n\n    constructor() {\n        token = new ERC20Basic();\n    }\n\n    function buy() payable public {\n        uint256 amountTobuy = msg.value;\n        uint256 dexBalance = token.balanceOf(address(this));\n        require(amountTobuy > 0, \"You need to send some ether\");\n        require(amountTobuy <= dexBalance, \"Not enough tokens in the reserve\");\n        token.transfer(msg.sender, amountTobuy);\n        emit Bought(amountTobuy);\n    }\n\n    function sell(uint256 amount) public {\n        require(amount > 0, \"You need to sell at least some tokens\");\n        uint256 allowance = token.allowance(msg.sender, address(this));\n        require(allowance >= amount, \"Check the token allowance\");\n        token.transferFrom(msg.sender, address(this), amount);\n        payable(msg.sender).transfer(amount);\n        emit Sold(amount);\n    }\n\n}\n",
  "sourcePath": "/Users/shuichinagao/Programming/Ethereum/metacoin/contracts/ERC20.sol",
  "compiler": {
    "name": "solc",
    "version": "0.8.13+commit.abaa5c0e.Emscripten.clang"
  },
  "schemaVersion": "3.4.10",
  "updatedAt": "2022-10-17T11:19:07.411Z",
  "devdoc": {
    "kind": "dev",
    "methods": {},
    "version": 1
  },
  "userdoc": {
    "kind": "user",
    "methods": {},
    "version": 1
  }
}